{"contracts/ExampleVerifier.sol":{"ExampleVerifier":{"abi":[{"inputs":[],"stateMutability":"nonpayable","type":"constructor"},{"inputs":[],"name":"NotInTree","type":"error"},{"inputs":[],"name":"Unauthorized","type":"error"},{"inputs":[],"name":"DOMAIN_SEPARATOR","outputs":[{"internalType":"bytes32","name":"","type":"bytes32"}],"stateMutability":"view","type":"function"},{"inputs":[{"internalType":"bytes32","name":"orderId","type":"bytes32"},{"internalType":"address","name":"user","type":"address"}],"name":"debugGenerateMessageHash","outputs":[{"internalType":"bytes32","name":"","type":"bytes32"}],"stateMutability":"view","type":"function"},{"inputs":[{"internalType":"bytes32","name":"orderId","type":"bytes32"},{"internalType":"address","name":"user","type":"address"},{"internalType":"bytes","name":"signature","type":"bytes"},{"internalType":"bytes32","name":"merkleRoot","type":"bytes32"},{"internalType":"bytes32[]","name":"proof","type":"bytes32[]"}],"name":"placeOrder","outputs":[],"stateMutability":"nonpayable","type":"function"}],"evm":{"bytecode":{"linkReferences":{},"object":"60a060405234801561001057600080fd5b5060408051808201825260058082526404d794170760dc1b60209283015282518084018452908152640312e302e360dc1b9082015281517f8b73c3c69bb8fe3d512ecc4cf759cc79239f7b179b0ffacaa9a75d522b39400f918101919091527f1db874843672c48c2b3f8b32abc9aedf3c4132bc5c1094d62797110a8f762d54918101919091527f06c015bd22b4c69690933c1058878ebdfef31f9aaae40bbe86d8a09fe1b2972c60608201524660808201523060a082015260c00160408051601f19818403018152919052805160209091012060805260805161066161010e60003960008181604b0152818160eb01526101dc01526106616000f3fe608060405234801561001057600080fd5b50600436106100415760003560e01c80633644e51514610046578063a4d930d61461007f578063d792d9ec14610094575b600080fd5b61006d7f000000000000000000000000000000000000000000000000000000000000000081565b60405190815260200160405180910390f35b61009261008d366004610500565b6100a7565b005b61006d6100a23660046105c2565b610198565b604080517fdcce7fdf48a29c3e61747ea003abced32e90234cc453fb8c08570968527a418d60208201529081018890526001600160a01b03871660608201526000907f0000000000000000000000000000000000000000000000000000000000000000906080016040516020818303038152906040528051906020012060405160200161014b92919061190160f01b81526002810192909252602282015260420190565b604051602081830303815290604052805190602001209050610172818484878a8a8d61025a565b61018e576040516282b42960e81b815260040160405180910390fd5b5050505050505050565b604080517fdcce7fdf48a29c3e61747ea003abced32e90234cc453fb8c08570968527a418d60208201529081018390526001600160a01b03821660608201526000907f0000000000000000000000000000000000000000000000000000000000000000906080016040516020818303038152906040528051906020012060405160200161023c92919061190160f01b81526002810192909252602282015260420190565b60405160208183030381529060405280519060200120905092915050565b6000610268888888886102e5565b6102855760405163d4d1a21560e01b815260040160405180910390fd5b816001600160a01b03166102cf8686868080601f0160208091040260200160405190810160405280939291908181526020018383808284376000920191909152506103cc92505050565b6001600160a01b03161498975050505050505050565b600084815b848110156103c057858582818110610304576103046105ee565b905060200201358210156103635781868683818110610325576103256105ee565b90506020020135604051602001610346929190918252602082015260400190565b6040516020818303038152906040528051906020012091506103b0565b858582818110610375576103756105ee565b9050602002013582604051602001610397929190918252602082015260400190565b6040516020818303038152906040528051906020012091505b6103b981610604565b90506102ea565b50909114949350505050565b600081516041146104235760405162461bcd60e51b815260206004820152601860248201527f496e76616c6964207369676e6174757265206c656e6774680000000000000000604482015260640160405180910390fd5b602082810151604080850151606080870151835160008082529681018086528a9052951a928501839052840183905260808401819052919260019060a0016020604051602081039080840390855afa158015610483573d6000803e3d6000fd5b5050604051601f190151979650505050505050565b80356001600160a01b03811681146104af57600080fd5b919050565b60008083601f8401126104c657600080fd5b50813567ffffffffffffffff8111156104de57600080fd5b6020830191508360208260051b85010111156104f957600080fd5b9250929050565b600080600080600080600060a0888a03121561051b57600080fd5b8735965061052b60208901610498565b9550604088013567ffffffffffffffff8082111561054857600080fd5b818a0191508a601f83011261055c57600080fd5b81358181111561056b57600080fd5b8b602082850101111561057d57600080fd5b6020830197508096505060608a0135945060808a01359150808211156105a257600080fd5b506105af8a828b016104b4565b989b979a50959850939692959293505050565b600080604083850312156105d557600080fd5b823591506105e560208401610498565b90509250929050565b634e487b7160e01b600052603260045260246000fd5b60006001820161062457634e487b7160e01b600052601160045260246000fd5b506001019056fea2646970667358221220d79c8203470a57fb2fdb26ddb7604d1aa2d9dc126f3ef36dff168ed4b25eb3fb64736f6c63430008140033","opcodes":"PUSH1 0xA0 PUSH1 0x40 MSTORE CALLVALUE DUP1 ISZERO PUSH2 0x10 JUMPI PUSH1 0x0 DUP1 REVERT JUMPDEST POP PUSH1 0x40 DUP1 MLOAD DUP1 DUP3 ADD DUP3 MSTORE PUSH1 0x5 DUP1 DUP3 MSTORE PUSH5 0x4D7941707 PUSH1 0xDC SHL PUSH1 0x20 SWAP3 DUP4 ADD MSTORE DUP3 MLOAD DUP1 DUP5 ADD DUP5 MSTORE SWAP1 DUP2 MSTORE PUSH5 0x312E302E3 PUSH1 0xDC SHL SWAP1 DUP3 ADD MSTORE DUP2 MLOAD PUSH32 0x8B73C3C69BB8FE3D512ECC4CF759CC79239F7B179B0FFACAA9A75D522B39400F SWAP2 DUP2 ADD SWAP2 SWAP1 SWAP2 MSTORE PUSH32 0x1DB874843672C48C2B3F8B32ABC9AEDF3C4132BC5C1094D62797110A8F762D54 SWAP2 DUP2 ADD SWAP2 SWAP1 SWAP2 MSTORE PUSH32 0x6C015BD22B4C69690933C1058878EBDFEF31F9AAAE40BBE86D8A09FE1B2972C PUSH1 0x60 DUP3 ADD MSTORE CHAINID PUSH1 0x80 DUP3 ADD MSTORE ADDRESS PUSH1 0xA0 DUP3 ADD MSTORE PUSH1 0xC0 ADD PUSH1 0x40 DUP1 MLOAD PUSH1 0x1F NOT DUP2 DUP5 SUB ADD DUP2 MSTORE SWAP2 SWAP1 MSTORE DUP1 MLOAD PUSH1 0x20 SWAP1 SWAP2 ADD KECCAK256 PUSH1 0x80 MSTORE PUSH1 0x80 MLOAD PUSH2 0x661 PUSH2 0x10E PUSH1 0x0 CODECOPY PUSH1 0x0 DUP2 DUP2 PUSH1 0x4B ADD MSTORE DUP2 DUP2 PUSH1 0xEB ADD MSTORE PUSH2 0x1DC ADD MSTORE PUSH2 0x661 PUSH1 0x0 RETURN INVALID PUSH1 0x80 PUSH1 0x40 MSTORE CALLVALUE DUP1 ISZERO PUSH2 0x10 JUMPI PUSH1 0x0 DUP1 REVERT JUMPDEST POP PUSH1 0x4 CALLDATASIZE LT PUSH2 0x41 JUMPI PUSH1 0x0 CALLDATALOAD PUSH1 0xE0 SHR DUP1 PUSH4 0x3644E515 EQ PUSH2 0x46 JUMPI DUP1 PUSH4 0xA4D930D6 EQ PUSH2 0x7F JUMPI DUP1 PUSH4 0xD792D9EC EQ PUSH2 0x94 JUMPI JUMPDEST PUSH1 0x0 DUP1 REVERT JUMPDEST PUSH2 0x6D PUSH32 0x0 DUP2 JUMP JUMPDEST PUSH1 0x40 MLOAD SWAP1 DUP2 MSTORE PUSH1 0x20 ADD PUSH1 0x40 MLOAD DUP1 SWAP2 SUB SWAP1 RETURN JUMPDEST PUSH2 0x92 PUSH2 0x8D CALLDATASIZE PUSH1 0x4 PUSH2 0x500 JUMP JUMPDEST PUSH2 0xA7 JUMP JUMPDEST STOP JUMPDEST PUSH2 0x6D PUSH2 0xA2 CALLDATASIZE PUSH1 0x4 PUSH2 0x5C2 JUMP JUMPDEST PUSH2 0x198 JUMP JUMPDEST PUSH1 0x40 DUP1 MLOAD PUSH32 0xDCCE7FDF48A29C3E61747EA003ABCED32E90234CC453FB8C08570968527A418D PUSH1 0x20 DUP3 ADD MSTORE SWAP1 DUP2 ADD DUP9 SWAP1 MSTORE PUSH1 0x1 PUSH1 0x1 PUSH1 0xA0 SHL SUB DUP8 AND PUSH1 0x60 DUP3 ADD MSTORE PUSH1 0x0 SWAP1 PUSH32 0x0 SWAP1 PUSH1 0x80 ADD PUSH1 0x40 MLOAD PUSH1 0x20 DUP2 DUP4 SUB SUB DUP2 MSTORE SWAP1 PUSH1 0x40 MSTORE DUP1 MLOAD SWAP1 PUSH1 0x20 ADD KECCAK256 PUSH1 0x40 MLOAD PUSH1 0x20 ADD PUSH2 0x14B SWAP3 SWAP2 SWAP1 PUSH2 0x1901 PUSH1 0xF0 SHL DUP2 MSTORE PUSH1 0x2 DUP2 ADD SWAP3 SWAP1 SWAP3 MSTORE PUSH1 0x22 DUP3 ADD MSTORE PUSH1 0x42 ADD SWAP1 JUMP JUMPDEST PUSH1 0x40 MLOAD PUSH1 0x20 DUP2 DUP4 SUB SUB DUP2 MSTORE SWAP1 PUSH1 0x40 MSTORE DUP1 MLOAD SWAP1 PUSH1 0x20 ADD KECCAK256 SWAP1 POP PUSH2 0x172 DUP2 DUP5 DUP5 DUP8 DUP11 DUP11 DUP14 PUSH2 0x25A JUMP JUMPDEST PUSH2 0x18E JUMPI PUSH1 0x40 MLOAD PUSH3 0x82B429 PUSH1 0xE8 SHL DUP2 MSTORE PUSH1 0x4 ADD PUSH1 0x40 MLOAD DUP1 SWAP2 SUB SWAP1 REVERT JUMPDEST POP POP POP POP POP POP POP POP JUMP JUMPDEST PUSH1 0x40 DUP1 MLOAD PUSH32 0xDCCE7FDF48A29C3E61747EA003ABCED32E90234CC453FB8C08570968527A418D PUSH1 0x20 DUP3 ADD MSTORE SWAP1 DUP2 ADD DUP4 SWAP1 MSTORE PUSH1 0x1 PUSH1 0x1 PUSH1 0xA0 SHL SUB DUP3 AND PUSH1 0x60 DUP3 ADD MSTORE PUSH1 0x0 SWAP1 PUSH32 0x0 SWAP1 PUSH1 0x80 ADD PUSH1 0x40 MLOAD PUSH1 0x20 DUP2 DUP4 SUB SUB DUP2 MSTORE SWAP1 PUSH1 0x40 MSTORE DUP1 MLOAD SWAP1 PUSH1 0x20 ADD KECCAK256 PUSH1 0x40 MLOAD PUSH1 0x20 ADD PUSH2 0x23C SWAP3 SWAP2 SWAP1 PUSH2 0x1901 PUSH1 0xF0 SHL DUP2 MSTORE PUSH1 0x2 DUP2 ADD SWAP3 SWAP1 SWAP3 MSTORE PUSH1 0x22 DUP3 ADD MSTORE PUSH1 0x42 ADD SWAP1 JUMP JUMPDEST PUSH1 0x40 MLOAD PUSH1 0x20 DUP2 DUP4 SUB SUB DUP2 MSTORE SWAP1 PUSH1 0x40 MSTORE DUP1 MLOAD SWAP1 PUSH1 0x20 ADD KECCAK256 SWAP1 POP SWAP3 SWAP2 POP POP JUMP JUMPDEST PUSH1 0x0 PUSH2 0x268 DUP9 DUP9 DUP9 DUP9 PUSH2 0x2E5 JUMP JUMPDEST PUSH2 0x285 JUMPI PUSH1 0x40 MLOAD PUSH4 0xD4D1A215 PUSH1 0xE0 SHL DUP2 MSTORE PUSH1 0x4 ADD PUSH1 0x40 MLOAD DUP1 SWAP2 SUB SWAP1 REVERT JUMPDEST DUP2 PUSH1 0x1 PUSH1 0x1 PUSH1 0xA0 SHL SUB AND PUSH2 0x2CF DUP7 DUP7 DUP7 DUP1 DUP1 PUSH1 0x1F ADD PUSH1 0x20 DUP1 SWAP2 DIV MUL PUSH1 0x20 ADD PUSH1 0x40 MLOAD SWAP1 DUP2 ADD PUSH1 0x40 MSTORE DUP1 SWAP4 SWAP3 SWAP2 SWAP1 DUP2 DUP2 MSTORE PUSH1 0x20 ADD DUP4 DUP4 DUP1 DUP3 DUP5 CALLDATACOPY PUSH1 0x0 SWAP3 ADD SWAP2 SWAP1 SWAP2 MSTORE POP PUSH2 0x3CC SWAP3 POP POP POP JUMP JUMPDEST PUSH1 0x1 PUSH1 0x1 PUSH1 0xA0 SHL SUB AND EQ SWAP9 SWAP8 POP POP POP POP POP POP POP POP JUMP JUMPDEST PUSH1 0x0 DUP5 DUP2 JUMPDEST DUP5 DUP2 LT ISZERO PUSH2 0x3C0 JUMPI DUP6 DUP6 DUP3 DUP2 DUP2 LT PUSH2 0x304 JUMPI PUSH2 0x304 PUSH2 0x5EE JUMP JUMPDEST SWAP1 POP PUSH1 0x20 MUL ADD CALLDATALOAD DUP3 LT ISZERO PUSH2 0x363 JUMPI DUP2 DUP7 DUP7 DUP4 DUP2 DUP2 LT PUSH2 0x325 JUMPI PUSH2 0x325 PUSH2 0x5EE JUMP JUMPDEST SWAP1 POP PUSH1 0x20 MUL ADD CALLDATALOAD PUSH1 0x40 MLOAD PUSH1 0x20 ADD PUSH2 0x346 SWAP3 SWAP2 SWAP1 SWAP2 DUP3 MSTORE PUSH1 0x20 DUP3 ADD MSTORE PUSH1 0x40 ADD SWAP1 JUMP JUMPDEST PUSH1 0x40 MLOAD PUSH1 0x20 DUP2 DUP4 SUB SUB DUP2 MSTORE SWAP1 PUSH1 0x40 MSTORE DUP1 MLOAD SWAP1 PUSH1 0x20 ADD KECCAK256 SWAP2 POP PUSH2 0x3B0 JUMP JUMPDEST DUP6 DUP6 DUP3 DUP2 DUP2 LT PUSH2 0x375 JUMPI PUSH2 0x375 PUSH2 0x5EE JUMP JUMPDEST SWAP1 POP PUSH1 0x20 MUL ADD CALLDATALOAD DUP3 PUSH1 0x40 MLOAD PUSH1 0x20 ADD PUSH2 0x397 SWAP3 SWAP2 SWAP1 SWAP2 DUP3 MSTORE PUSH1 0x20 DUP3 ADD MSTORE PUSH1 0x40 ADD SWAP1 JUMP JUMPDEST PUSH1 0x40 MLOAD PUSH1 0x20 DUP2 DUP4 SUB SUB DUP2 MSTORE SWAP1 PUSH1 0x40 MSTORE DUP1 MLOAD SWAP1 PUSH1 0x20 ADD KECCAK256 SWAP2 POP JUMPDEST PUSH2 0x3B9 DUP2 PUSH2 0x604 JUMP JUMPDEST SWAP1 POP PUSH2 0x2EA JUMP JUMPDEST POP SWAP1 SWAP2 EQ SWAP5 SWAP4 POP POP POP POP JUMP JUMPDEST PUSH1 0x0 DUP2 MLOAD PUSH1 0x41 EQ PUSH2 0x423 JUMPI PUSH1 0x40 MLOAD PUSH3 0x461BCD PUSH1 0xE5 SHL DUP2 MSTORE PUSH1 0x20 PUSH1 0x4 DUP3 ADD MSTORE PUSH1 0x18 PUSH1 0x24 DUP3 ADD MSTORE PUSH32 0x496E76616C6964207369676E6174757265206C656E6774680000000000000000 PUSH1 0x44 DUP3 ADD MSTORE PUSH1 0x64 ADD PUSH1 0x40 MLOAD DUP1 SWAP2 SUB SWAP1 REVERT JUMPDEST PUSH1 0x20 DUP3 DUP2 ADD MLOAD PUSH1 0x40 DUP1 DUP6 ADD MLOAD PUSH1 0x60 DUP1 DUP8 ADD MLOAD DUP4 MLOAD PUSH1 0x0 DUP1 DUP3 MSTORE SWAP7 DUP2 ADD DUP1 DUP7 MSTORE DUP11 SWAP1 MSTORE SWAP6 BYTE SWAP3 DUP6 ADD DUP4 SWAP1 MSTORE DUP5 ADD DUP4 SWAP1 MSTORE PUSH1 0x80 DUP5 ADD DUP2 SWAP1 MSTORE SWAP2 SWAP3 PUSH1 0x1 SWAP1 PUSH1 0xA0 ADD PUSH1 0x20 PUSH1 0x40 MLOAD PUSH1 0x20 DUP2 SUB SWAP1 DUP1 DUP5 SUB SWAP1 DUP6 GAS STATICCALL ISZERO DUP1 ISZERO PUSH2 0x483 JUMPI RETURNDATASIZE PUSH1 0x0 DUP1 RETURNDATACOPY RETURNDATASIZE PUSH1 0x0 REVERT JUMPDEST POP POP PUSH1 0x40 MLOAD PUSH1 0x1F NOT ADD MLOAD SWAP8 SWAP7 POP POP POP POP POP POP POP JUMP JUMPDEST DUP1 CALLDATALOAD PUSH1 0x1 PUSH1 0x1 PUSH1 0xA0 SHL SUB DUP2 AND DUP2 EQ PUSH2 0x4AF JUMPI PUSH1 0x0 DUP1 REVERT JUMPDEST SWAP2 SWAP1 POP JUMP JUMPDEST PUSH1 0x0 DUP1 DUP4 PUSH1 0x1F DUP5 ADD SLT PUSH2 0x4C6 JUMPI PUSH1 0x0 DUP1 REVERT JUMPDEST POP DUP2 CALLDATALOAD PUSH8 0xFFFFFFFFFFFFFFFF DUP2 GT ISZERO PUSH2 0x4DE JUMPI PUSH1 0x0 DUP1 REVERT JUMPDEST PUSH1 0x20 DUP4 ADD SWAP2 POP DUP4 PUSH1 0x20 DUP3 PUSH1 0x5 SHL DUP6 ADD ADD GT ISZERO PUSH2 0x4F9 JUMPI PUSH1 0x0 DUP1 REVERT JUMPDEST SWAP3 POP SWAP3 SWAP1 POP JUMP JUMPDEST PUSH1 0x0 DUP1 PUSH1 0x0 DUP1 PUSH1 0x0 DUP1 PUSH1 0x0 PUSH1 0xA0 DUP9 DUP11 SUB SLT ISZERO PUSH2 0x51B JUMPI PUSH1 0x0 DUP1 REVERT JUMPDEST DUP8 CALLDATALOAD SWAP7 POP PUSH2 0x52B PUSH1 0x20 DUP10 ADD PUSH2 0x498 JUMP JUMPDEST SWAP6 POP PUSH1 0x40 DUP9 ADD CALLDATALOAD PUSH8 0xFFFFFFFFFFFFFFFF DUP1 DUP3 GT ISZERO PUSH2 0x548 JUMPI PUSH1 0x0 DUP1 REVERT JUMPDEST DUP2 DUP11 ADD SWAP2 POP DUP11 PUSH1 0x1F DUP4 ADD SLT PUSH2 0x55C JUMPI PUSH1 0x0 DUP1 REVERT JUMPDEST DUP2 CALLDATALOAD DUP2 DUP2 GT ISZERO PUSH2 0x56B JUMPI PUSH1 0x0 DUP1 REVERT JUMPDEST DUP12 PUSH1 0x20 DUP3 DUP6 ADD ADD GT ISZERO PUSH2 0x57D JUMPI PUSH1 0x0 DUP1 REVERT JUMPDEST PUSH1 0x20 DUP4 ADD SWAP8 POP DUP1 SWAP7 POP POP PUSH1 0x60 DUP11 ADD CALLDATALOAD SWAP5 POP PUSH1 0x80 DUP11 ADD CALLDATALOAD SWAP2 POP DUP1 DUP3 GT ISZERO PUSH2 0x5A2 JUMPI PUSH1 0x0 DUP1 REVERT JUMPDEST POP PUSH2 0x5AF DUP11 DUP3 DUP12 ADD PUSH2 0x4B4 JUMP JUMPDEST SWAP9 SWAP12 SWAP8 SWAP11 POP SWAP6 SWAP9 POP SWAP4 SWAP7 SWAP3 SWAP6 SWAP3 SWAP4 POP POP POP JUMP JUMPDEST PUSH1 0x0 DUP1 PUSH1 0x40 DUP4 DUP6 SUB SLT ISZERO PUSH2 0x5D5 JUMPI PUSH1 0x0 DUP1 REVERT JUMPDEST DUP3 CALLDATALOAD SWAP2 POP PUSH2 0x5E5 PUSH1 0x20 DUP5 ADD PUSH2 0x498 JUMP JUMPDEST SWAP1 POP SWAP3 POP SWAP3 SWAP1 POP JUMP JUMPDEST PUSH4 0x4E487B71 PUSH1 0xE0 SHL PUSH1 0x0 MSTORE PUSH1 0x32 PUSH1 0x4 MSTORE PUSH1 0x24 PUSH1 0x0 REVERT JUMPDEST PUSH1 0x0 PUSH1 0x1 DUP3 ADD PUSH2 0x624 JUMPI PUSH4 0x4E487B71 PUSH1 0xE0 SHL PUSH1 0x0 MSTORE PUSH1 0x11 PUSH1 0x4 MSTORE PUSH1 0x24 PUSH1 0x0 REVERT JUMPDEST POP PUSH1 0x1 ADD SWAP1 JUMP INVALID LOG2 PUSH5 0x6970667358 0x22 SLT KECCAK256 0xD7 SWAP13 DUP3 SUB SELFBALANCE EXP JUMPI 0xFB 0x2F 0xDB 0x26 0xDD 0xB7 PUSH1 0x4D BYTE LOG2 0xD9 0xDC SLT PUSH16 0x3EF36DFF168ED4B25EB3FB64736F6C63 NUMBER STOP ADDMOD EQ STOP CALLER "},"methodIdentifiers":{"DOMAIN_SEPARATOR()":"3644e515","debugGenerateMessageHash(bytes32,address)":"d792d9ec","placeOrder(bytes32,address,bytes,bytes32,bytes32[])":"a4d930d6"}}}}}