{"contracts/Verifier.sol":{"Verifier":{"abi":[{"inputs":[],"stateMutability":"nonpayable","type":"constructor"},{"inputs":[{"internalType":"bytes32","name":"merkleRoot","type":"bytes32"},{"internalType":"bytes","name":"signature","type":"bytes"}],"name":"recoverSignerFromCompositeSignature","outputs":[{"internalType":"address","name":"","type":"address"}],"stateMutability":"view","type":"function"},{"inputs":[{"internalType":"bytes32","name":"messageHash","type":"bytes32"},{"internalType":"bytes32[]","name":"proof","type":"bytes32[]"},{"internalType":"bytes32","name":"merkleRoot","type":"bytes32"},{"internalType":"bytes","name":"signature","type":"bytes"},{"internalType":"address","name":"expectedSigner","type":"address"}],"name":"verifyCompositeSignature","outputs":[{"internalType":"bool","name":"","type":"bool"}],"stateMutability":"view","type":"function"},{"inputs":[{"internalType":"bytes32","name":"messageHash","type":"bytes32"},{"internalType":"bytes32[]","name":"proof","type":"bytes32[]"},{"internalType":"bytes32","name":"root","type":"bytes32"}],"name":"verifyMessageInclusion","outputs":[{"internalType":"bool","name":"","type":"bool"}],"stateMutability":"pure","type":"function"}],"evm":{"bytecode":{"linkReferences":{},"object":"60a060405234801561001057600080fd5b50604080518082018252601981527f4549502d585858582d436f6d706f736974654d657373616765000000000000006020918201528151808301835260058152640312e302e360dc1b9082015281517fc2f8787176b8ac6bf7215b4adcc1e069bf4ab82d9ab1df05a57a91d425935b6e818301527f52ccc4043a4224385b40f3e15fc944879b0448416742f04f84f20bae055c0b20818401527f06c015bd22b4c69690933c1058878ebdfef31f9aaae40bbe86d8a09fe1b2972c60608201524660808083019190915283518083038201815260a09092019093528051910120908190526105a361010b60003960006101ff01526105a36000f3fe608060405234801561001057600080fd5b50600436106100415760003560e01c80639850c61c14610046578063cb5017571461006e578063f8c3ddd414610081575b600080fd5b6100596100543660046103ee565b6100ac565b60405190151581526020015b60405180910390f35b61005961007c366004610491565b6100f0565b61009461008f3660046104e4565b61019f565b6040516001600160a01b039091168152602001610065565b60006100ba888888886100f0565b6100c6575060006100e5565b60006100d386868661019f565b6001600160a01b038481169116149150505b979650505050505050565b600084815b8481101561019357600086868381811061011157610111610530565b90506020020135905080831015610153576040805160208101859052908101829052606001604051602081830303815290604052805190602001209250610180565b60408051602081018390529081018490526060016040516020818303038152906040528051906020012092505b508061018b81610546565b9150506100f5565b50909114949350505050565b604080517f7c2dbae0f2b0a655cfc0823536a5fe4ab8b7f73fcbf1908c4f43e26bbdea08dc6020820152908101849052600090819060600160408051601f1981840301815290829052805160209182012061190160f01b918301919091527f0000000000000000000000000000000000000000000000000000000000000000602283015260428201819052915060009060620160405160208183030381529060405280519060200120905061028a8186868080601f01602080910402602001604051908101604052809392919081815260200183838082843760009201919091525061029492505050565b9695505050505050565b600081516041146102eb5760405162461bcd60e51b815260206004820152601860248201527f496e76616c6964207369676e6174757265206c656e6774680000000000000000604482015260640160405180910390fd5b602082810151604080850151606080870151835160008082529681018086528a9052951a928501839052840183905260808401819052919260019060a0016020604051602081039080840390855afa15801561034b573d6000803e3d6000fd5b5050604051601f190151979650505050505050565b60008083601f84011261037257600080fd5b50813567ffffffffffffffff81111561038a57600080fd5b6020830191508360208260051b85010111156103a557600080fd5b9250929050565b60008083601f8401126103be57600080fd5b50813567ffffffffffffffff8111156103d657600080fd5b6020830191508360208285010111156103a557600080fd5b600080600080600080600060a0888a03121561040957600080fd5b87359650602088013567ffffffffffffffff8082111561042857600080fd5b6104348b838c01610360565b909850965060408a0135955060608a013591508082111561045457600080fd5b506104618a828b016103ac565b90945092505060808801356001600160a01b038116811461048157600080fd5b8091505092959891949750929550565b600080600080606085870312156104a757600080fd5b84359350602085013567ffffffffffffffff8111156104c557600080fd5b6104d187828801610360565b9598909750949560400135949350505050565b6000806000604084860312156104f957600080fd5b83359250602084013567ffffffffffffffff81111561051757600080fd5b610523868287016103ac565b9497909650939450505050565b634e487b7160e01b600052603260045260246000fd5b60006001820161056657634e487b7160e01b600052601160045260246000fd5b506001019056fea2646970667358221220b08beaa5a91375dd709aa03dda5fdae3e39322b32e94460b48b343126687963d64736f6c63430008140033","opcodes":"PUSH1 0xA0 PUSH1 0x40 MSTORE CALLVALUE DUP1 ISZERO PUSH2 0x10 JUMPI PUSH1 0x0 DUP1 REVERT JUMPDEST POP PUSH1 0x40 DUP1 MLOAD DUP1 DUP3 ADD DUP3 MSTORE PUSH1 0x19 DUP2 MSTORE PUSH32 0x4549502D585858582D436F6D706F736974654D65737361676500000000000000 PUSH1 0x20 SWAP2 DUP3 ADD MSTORE DUP2 MLOAD DUP1 DUP4 ADD DUP4 MSTORE PUSH1 0x5 DUP2 MSTORE PUSH5 0x312E302E3 PUSH1 0xDC SHL SWAP1 DUP3 ADD MSTORE DUP2 MLOAD PUSH32 0xC2F8787176B8AC6BF7215B4ADCC1E069BF4AB82D9AB1DF05A57A91D425935B6E DUP2 DUP4 ADD MSTORE PUSH32 0x52CCC4043A4224385B40F3E15FC944879B0448416742F04F84F20BAE055C0B20 DUP2 DUP5 ADD MSTORE PUSH32 0x6C015BD22B4C69690933C1058878EBDFEF31F9AAAE40BBE86D8A09FE1B2972C PUSH1 0x60 DUP3 ADD MSTORE CHAINID PUSH1 0x80 DUP1 DUP4 ADD SWAP2 SWAP1 SWAP2 MSTORE DUP4 MLOAD DUP1 DUP4 SUB DUP3 ADD DUP2 MSTORE PUSH1 0xA0 SWAP1 SWAP3 ADD SWAP1 SWAP4 MSTORE DUP1 MLOAD SWAP2 ADD KECCAK256 SWAP1 DUP2 SWAP1 MSTORE PUSH2 0x5A3 PUSH2 0x10B PUSH1 0x0 CODECOPY PUSH1 0x0 PUSH2 0x1FF ADD MSTORE PUSH2 0x5A3 PUSH1 0x0 RETURN INVALID PUSH1 0x80 PUSH1 0x40 MSTORE CALLVALUE DUP1 ISZERO PUSH2 0x10 JUMPI PUSH1 0x0 DUP1 REVERT JUMPDEST POP PUSH1 0x4 CALLDATASIZE LT PUSH2 0x41 JUMPI PUSH1 0x0 CALLDATALOAD PUSH1 0xE0 SHR DUP1 PUSH4 0x9850C61C EQ PUSH2 0x46 JUMPI DUP1 PUSH4 0xCB501757 EQ PUSH2 0x6E JUMPI DUP1 PUSH4 0xF8C3DDD4 EQ PUSH2 0x81 JUMPI JUMPDEST PUSH1 0x0 DUP1 REVERT JUMPDEST PUSH2 0x59 PUSH2 0x54 CALLDATASIZE PUSH1 0x4 PUSH2 0x3EE JUMP JUMPDEST PUSH2 0xAC JUMP JUMPDEST PUSH1 0x40 MLOAD SWAP1 ISZERO ISZERO DUP2 MSTORE PUSH1 0x20 ADD JUMPDEST PUSH1 0x40 MLOAD DUP1 SWAP2 SUB SWAP1 RETURN JUMPDEST PUSH2 0x59 PUSH2 0x7C CALLDATASIZE PUSH1 0x4 PUSH2 0x491 JUMP JUMPDEST PUSH2 0xF0 JUMP JUMPDEST PUSH2 0x94 PUSH2 0x8F CALLDATASIZE PUSH1 0x4 PUSH2 0x4E4 JUMP JUMPDEST PUSH2 0x19F JUMP JUMPDEST PUSH1 0x40 MLOAD PUSH1 0x1 PUSH1 0x1 PUSH1 0xA0 SHL SUB SWAP1 SWAP2 AND DUP2 MSTORE PUSH1 0x20 ADD PUSH2 0x65 JUMP JUMPDEST PUSH1 0x0 PUSH2 0xBA DUP9 DUP9 DUP9 DUP9 PUSH2 0xF0 JUMP JUMPDEST PUSH2 0xC6 JUMPI POP PUSH1 0x0 PUSH2 0xE5 JUMP JUMPDEST PUSH1 0x0 PUSH2 0xD3 DUP7 DUP7 DUP7 PUSH2 0x19F JUMP JUMPDEST PUSH1 0x1 PUSH1 0x1 PUSH1 0xA0 SHL SUB DUP5 DUP2 AND SWAP2 AND EQ SWAP2 POP POP JUMPDEST SWAP8 SWAP7 POP POP POP POP POP POP POP JUMP JUMPDEST PUSH1 0x0 DUP5 DUP2 JUMPDEST DUP5 DUP2 LT ISZERO PUSH2 0x193 JUMPI PUSH1 0x0 DUP7 DUP7 DUP4 DUP2 DUP2 LT PUSH2 0x111 JUMPI PUSH2 0x111 PUSH2 0x530 JUMP JUMPDEST SWAP1 POP PUSH1 0x20 MUL ADD CALLDATALOAD SWAP1 POP DUP1 DUP4 LT ISZERO PUSH2 0x153 JUMPI PUSH1 0x40 DUP1 MLOAD PUSH1 0x20 DUP2 ADD DUP6 SWAP1 MSTORE SWAP1 DUP2 ADD DUP3 SWAP1 MSTORE PUSH1 0x60 ADD PUSH1 0x40 MLOAD PUSH1 0x20 DUP2 DUP4 SUB SUB DUP2 MSTORE SWAP1 PUSH1 0x40 MSTORE DUP1 MLOAD SWAP1 PUSH1 0x20 ADD KECCAK256 SWAP3 POP PUSH2 0x180 JUMP JUMPDEST PUSH1 0x40 DUP1 MLOAD PUSH1 0x20 DUP2 ADD DUP4 SWAP1 MSTORE SWAP1 DUP2 ADD DUP5 SWAP1 MSTORE PUSH1 0x60 ADD PUSH1 0x40 MLOAD PUSH1 0x20 DUP2 DUP4 SUB SUB DUP2 MSTORE SWAP1 PUSH1 0x40 MSTORE DUP1 MLOAD SWAP1 PUSH1 0x20 ADD KECCAK256 SWAP3 POP JUMPDEST POP DUP1 PUSH2 0x18B DUP2 PUSH2 0x546 JUMP JUMPDEST SWAP2 POP POP PUSH2 0xF5 JUMP JUMPDEST POP SWAP1 SWAP2 EQ SWAP5 SWAP4 POP POP POP POP JUMP JUMPDEST PUSH1 0x40 DUP1 MLOAD PUSH32 0x7C2DBAE0F2B0A655CFC0823536A5FE4AB8B7F73FCBF1908C4F43E26BBDEA08DC PUSH1 0x20 DUP3 ADD MSTORE SWAP1 DUP2 ADD DUP5 SWAP1 MSTORE PUSH1 0x0 SWAP1 DUP2 SWAP1 PUSH1 0x60 ADD PUSH1 0x40 DUP1 MLOAD PUSH1 0x1F NOT DUP2 DUP5 SUB ADD DUP2 MSTORE SWAP1 DUP3 SWAP1 MSTORE DUP1 MLOAD PUSH1 0x20 SWAP2 DUP3 ADD KECCAK256 PUSH2 0x1901 PUSH1 0xF0 SHL SWAP2 DUP4 ADD SWAP2 SWAP1 SWAP2 MSTORE PUSH32 0x0 PUSH1 0x22 DUP4 ADD MSTORE PUSH1 0x42 DUP3 ADD DUP2 SWAP1 MSTORE SWAP2 POP PUSH1 0x0 SWAP1 PUSH1 0x62 ADD PUSH1 0x40 MLOAD PUSH1 0x20 DUP2 DUP4 SUB SUB DUP2 MSTORE SWAP1 PUSH1 0x40 MSTORE DUP1 MLOAD SWAP1 PUSH1 0x20 ADD KECCAK256 SWAP1 POP PUSH2 0x28A DUP2 DUP7 DUP7 DUP1 DUP1 PUSH1 0x1F ADD PUSH1 0x20 DUP1 SWAP2 DIV MUL PUSH1 0x20 ADD PUSH1 0x40 MLOAD SWAP1 DUP2 ADD PUSH1 0x40 MSTORE DUP1 SWAP4 SWAP3 SWAP2 SWAP1 DUP2 DUP2 MSTORE PUSH1 0x20 ADD DUP4 DUP4 DUP1 DUP3 DUP5 CALLDATACOPY PUSH1 0x0 SWAP3 ADD SWAP2 SWAP1 SWAP2 MSTORE POP PUSH2 0x294 SWAP3 POP POP POP JUMP JUMPDEST SWAP7 SWAP6 POP POP POP POP POP POP JUMP JUMPDEST PUSH1 0x0 DUP2 MLOAD PUSH1 0x41 EQ PUSH2 0x2EB JUMPI PUSH1 0x40 MLOAD PUSH3 0x461BCD PUSH1 0xE5 SHL DUP2 MSTORE PUSH1 0x20 PUSH1 0x4 DUP3 ADD MSTORE PUSH1 0x18 PUSH1 0x24 DUP3 ADD MSTORE PUSH32 0x496E76616C6964207369676E6174757265206C656E6774680000000000000000 PUSH1 0x44 DUP3 ADD MSTORE PUSH1 0x64 ADD PUSH1 0x40 MLOAD DUP1 SWAP2 SUB SWAP1 REVERT JUMPDEST PUSH1 0x20 DUP3 DUP2 ADD MLOAD PUSH1 0x40 DUP1 DUP6 ADD MLOAD PUSH1 0x60 DUP1 DUP8 ADD MLOAD DUP4 MLOAD PUSH1 0x0 DUP1 DUP3 MSTORE SWAP7 DUP2 ADD DUP1 DUP7 MSTORE DUP11 SWAP1 MSTORE SWAP6 BYTE SWAP3 DUP6 ADD DUP4 SWAP1 MSTORE DUP5 ADD DUP4 SWAP1 MSTORE PUSH1 0x80 DUP5 ADD DUP2 SWAP1 MSTORE SWAP2 SWAP3 PUSH1 0x1 SWAP1 PUSH1 0xA0 ADD PUSH1 0x20 PUSH1 0x40 MLOAD PUSH1 0x20 DUP2 SUB SWAP1 DUP1 DUP5 SUB SWAP1 DUP6 GAS STATICCALL ISZERO DUP1 ISZERO PUSH2 0x34B JUMPI RETURNDATASIZE PUSH1 0x0 DUP1 RETURNDATACOPY RETURNDATASIZE PUSH1 0x0 REVERT JUMPDEST POP POP PUSH1 0x40 MLOAD PUSH1 0x1F NOT ADD MLOAD SWAP8 SWAP7 POP POP POP POP POP POP POP JUMP JUMPDEST PUSH1 0x0 DUP1 DUP4 PUSH1 0x1F DUP5 ADD SLT PUSH2 0x372 JUMPI PUSH1 0x0 DUP1 REVERT JUMPDEST POP DUP2 CALLDATALOAD PUSH8 0xFFFFFFFFFFFFFFFF DUP2 GT ISZERO PUSH2 0x38A JUMPI PUSH1 0x0 DUP1 REVERT JUMPDEST PUSH1 0x20 DUP4 ADD SWAP2 POP DUP4 PUSH1 0x20 DUP3 PUSH1 0x5 SHL DUP6 ADD ADD GT ISZERO PUSH2 0x3A5 JUMPI PUSH1 0x0 DUP1 REVERT JUMPDEST SWAP3 POP SWAP3 SWAP1 POP JUMP JUMPDEST PUSH1 0x0 DUP1 DUP4 PUSH1 0x1F DUP5 ADD SLT PUSH2 0x3BE JUMPI PUSH1 0x0 DUP1 REVERT JUMPDEST POP DUP2 CALLDATALOAD PUSH8 0xFFFFFFFFFFFFFFFF DUP2 GT ISZERO PUSH2 0x3D6 JUMPI PUSH1 0x0 DUP1 REVERT JUMPDEST PUSH1 0x20 DUP4 ADD SWAP2 POP DUP4 PUSH1 0x20 DUP3 DUP6 ADD ADD GT ISZERO PUSH2 0x3A5 JUMPI PUSH1 0x0 DUP1 REVERT JUMPDEST PUSH1 0x0 DUP1 PUSH1 0x0 DUP1 PUSH1 0x0 DUP1 PUSH1 0x0 PUSH1 0xA0 DUP9 DUP11 SUB SLT ISZERO PUSH2 0x409 JUMPI PUSH1 0x0 DUP1 REVERT JUMPDEST DUP8 CALLDATALOAD SWAP7 POP PUSH1 0x20 DUP9 ADD CALLDATALOAD PUSH8 0xFFFFFFFFFFFFFFFF DUP1 DUP3 GT ISZERO PUSH2 0x428 JUMPI PUSH1 0x0 DUP1 REVERT JUMPDEST PUSH2 0x434 DUP12 DUP4 DUP13 ADD PUSH2 0x360 JUMP JUMPDEST SWAP1 SWAP9 POP SWAP7 POP PUSH1 0x40 DUP11 ADD CALLDATALOAD SWAP6 POP PUSH1 0x60 DUP11 ADD CALLDATALOAD SWAP2 POP DUP1 DUP3 GT ISZERO PUSH2 0x454 JUMPI PUSH1 0x0 DUP1 REVERT JUMPDEST POP PUSH2 0x461 DUP11 DUP3 DUP12 ADD PUSH2 0x3AC JUMP JUMPDEST SWAP1 SWAP5 POP SWAP3 POP POP PUSH1 0x80 DUP9 ADD CALLDATALOAD PUSH1 0x1 PUSH1 0x1 PUSH1 0xA0 SHL SUB DUP2 AND DUP2 EQ PUSH2 0x481 JUMPI PUSH1 0x0 DUP1 REVERT JUMPDEST DUP1 SWAP2 POP POP SWAP3 SWAP6 SWAP9 SWAP2 SWAP5 SWAP8 POP SWAP3 SWAP6 POP JUMP JUMPDEST PUSH1 0x0 DUP1 PUSH1 0x0 DUP1 PUSH1 0x60 DUP6 DUP8 SUB SLT ISZERO PUSH2 0x4A7 JUMPI PUSH1 0x0 DUP1 REVERT JUMPDEST DUP5 CALLDATALOAD SWAP4 POP PUSH1 0x20 DUP6 ADD CALLDATALOAD PUSH8 0xFFFFFFFFFFFFFFFF DUP2 GT ISZERO PUSH2 0x4C5 JUMPI PUSH1 0x0 DUP1 REVERT JUMPDEST PUSH2 0x4D1 DUP8 DUP3 DUP9 ADD PUSH2 0x360 JUMP JUMPDEST SWAP6 SWAP9 SWAP1 SWAP8 POP SWAP5 SWAP6 PUSH1 0x40 ADD CALLDATALOAD SWAP5 SWAP4 POP POP POP POP JUMP JUMPDEST PUSH1 0x0 DUP1 PUSH1 0x0 PUSH1 0x40 DUP5 DUP7 SUB SLT ISZERO PUSH2 0x4F9 JUMPI PUSH1 0x0 DUP1 REVERT JUMPDEST DUP4 CALLDATALOAD SWAP3 POP PUSH1 0x20 DUP5 ADD CALLDATALOAD PUSH8 0xFFFFFFFFFFFFFFFF DUP2 GT ISZERO PUSH2 0x517 JUMPI PUSH1 0x0 DUP1 REVERT JUMPDEST PUSH2 0x523 DUP7 DUP3 DUP8 ADD PUSH2 0x3AC JUMP JUMPDEST SWAP5 SWAP8 SWAP1 SWAP7 POP SWAP4 SWAP5 POP POP POP POP JUMP JUMPDEST PUSH4 0x4E487B71 PUSH1 0xE0 SHL PUSH1 0x0 MSTORE PUSH1 0x32 PUSH1 0x4 MSTORE PUSH1 0x24 PUSH1 0x0 REVERT JUMPDEST PUSH1 0x0 PUSH1 0x1 DUP3 ADD PUSH2 0x566 JUMPI PUSH4 0x4E487B71 PUSH1 0xE0 SHL PUSH1 0x0 MSTORE PUSH1 0x11 PUSH1 0x4 MSTORE PUSH1 0x24 PUSH1 0x0 REVERT JUMPDEST POP PUSH1 0x1 ADD SWAP1 JUMP INVALID LOG2 PUSH5 0x6970667358 0x22 SLT KECCAK256 0xB0 DUP12 0xEA 0xA5 0xA9 SGT PUSH22 0xDD709AA03DDA5FDAE3E39322B32E94460B48B3431266 DUP8 SWAP7 RETURNDATASIZE PUSH5 0x736F6C6343 STOP ADDMOD EQ STOP CALLER "},"methodIdentifiers":{"recoverSignerFromCompositeSignature(bytes32,bytes)":"f8c3ddd4","verifyCompositeSignature(bytes32,bytes32[],bytes32,bytes,address)":"9850c61c","verifyMessageInclusion(bytes32,bytes32[],bytes32)":"cb501757"}}}}}