{
  "_format": "hh-sol-artifact-1",
  "contractName": "ExampleVerifier",
  "sourceName": "contracts/ExampleVerifier.sol",
  "abi": [
    {
      "inputs": [],
      "stateMutability": "nonpayable",
      "type": "constructor"
    },
    {
      "inputs": [],
      "name": "NotInTree",
      "type": "error"
    },
    {
      "inputs": [],
      "name": "Unauthorized",
      "type": "error"
    },
    {
      "inputs": [],
      "name": "DOMAIN_SEPARATOR",
      "outputs": [
        {
          "internalType": "bytes32",
          "name": "",
          "type": "bytes32"
        }
      ],
      "stateMutability": "view",
      "type": "function"
    },
    {
      "inputs": [
        {
          "internalType": "bytes32",
          "name": "orderId",
          "type": "bytes32"
        },
        {
          "internalType": "address",
          "name": "user",
          "type": "address"
        }
      ],
      "name": "debugGenerateMessageHash",
      "outputs": [
        {
          "internalType": "bytes32",
          "name": "",
          "type": "bytes32"
        }
      ],
      "stateMutability": "view",
      "type": "function"
    },
    {
      "inputs": [
        {
          "internalType": "bytes32",
          "name": "orderId",
          "type": "bytes32"
        },
        {
          "internalType": "address",
          "name": "user",
          "type": "address"
        },
        {
          "internalType": "bytes",
          "name": "signature",
          "type": "bytes"
        },
        {
          "internalType": "bytes32",
          "name": "merkleRoot",
          "type": "bytes32"
        },
        {
          "internalType": "bytes32[]",
          "name": "proof",
          "type": "bytes32[]"
        }
      ],
      "name": "placeOrder",
      "outputs": [],
      "stateMutability": "nonpayable",
      "type": "function"
    }
  ],
  "bytecode": "0x60a060405234801561001057600080fd5b5060408051808201825260058082526404d794170760dc1b60209283015282518084018452908152640312e302e360dc1b9082015281517f8b73c3c69bb8fe3d512ecc4cf759cc79239f7b179b0ffacaa9a75d522b39400f918101919091527f1db874843672c48c2b3f8b32abc9aedf3c4132bc5c1094d62797110a8f762d54918101919091527f06c015bd22b4c69690933c1058878ebdfef31f9aaae40bbe86d8a09fe1b2972c60608201524660808201523060a082015260c00160408051601f19818403018152919052805160209091012060805260805161066161010e60003960008181604b0152818160eb01526101dc01526106616000f3fe608060405234801561001057600080fd5b50600436106100415760003560e01c80633644e51514610046578063a4d930d61461007f578063d792d9ec14610094575b600080fd5b61006d7f000000000000000000000000000000000000000000000000000000000000000081565b60405190815260200160405180910390f35b61009261008d366004610500565b6100a7565b005b61006d6100a23660046105c2565b610198565b604080517fdcce7fdf48a29c3e61747ea003abced32e90234cc453fb8c08570968527a418d60208201529081018890526001600160a01b03871660608201526000907f0000000000000000000000000000000000000000000000000000000000000000906080016040516020818303038152906040528051906020012060405160200161014b92919061190160f01b81526002810192909252602282015260420190565b604051602081830303815290604052805190602001209050610172818484878a8a8d61025a565b61018e576040516282b42960e81b815260040160405180910390fd5b5050505050505050565b604080517fdcce7fdf48a29c3e61747ea003abced32e90234cc453fb8c08570968527a418d60208201529081018390526001600160a01b03821660608201526000907f0000000000000000000000000000000000000000000000000000000000000000906080016040516020818303038152906040528051906020012060405160200161023c92919061190160f01b81526002810192909252602282015260420190565b60405160208183030381529060405280519060200120905092915050565b6000610268888888886102e5565b6102855760405163d4d1a21560e01b815260040160405180910390fd5b816001600160a01b03166102cf8686868080601f0160208091040260200160405190810160405280939291908181526020018383808284376000920191909152506103cc92505050565b6001600160a01b03161498975050505050505050565b600084815b848110156103c057858582818110610304576103046105ee565b905060200201358210156103635781868683818110610325576103256105ee565b90506020020135604051602001610346929190918252602082015260400190565b6040516020818303038152906040528051906020012091506103b0565b858582818110610375576103756105ee565b9050602002013582604051602001610397929190918252602082015260400190565b6040516020818303038152906040528051906020012091505b6103b981610604565b90506102ea565b50909114949350505050565b600081516041146104235760405162461bcd60e51b815260206004820152601860248201527f496e76616c6964207369676e6174757265206c656e6774680000000000000000604482015260640160405180910390fd5b602082810151604080850151606080870151835160008082529681018086528a9052951a928501839052840183905260808401819052919260019060a0016020604051602081039080840390855afa158015610483573d6000803e3d6000fd5b5050604051601f190151979650505050505050565b80356001600160a01b03811681146104af57600080fd5b919050565b60008083601f8401126104c657600080fd5b50813567ffffffffffffffff8111156104de57600080fd5b6020830191508360208260051b85010111156104f957600080fd5b9250929050565b600080600080600080600060a0888a03121561051b57600080fd5b8735965061052b60208901610498565b9550604088013567ffffffffffffffff8082111561054857600080fd5b818a0191508a601f83011261055c57600080fd5b81358181111561056b57600080fd5b8b602082850101111561057d57600080fd5b6020830197508096505060608a0135945060808a01359150808211156105a257600080fd5b506105af8a828b016104b4565b989b979a50959850939692959293505050565b600080604083850312156105d557600080fd5b823591506105e560208401610498565b90509250929050565b634e487b7160e01b600052603260045260246000fd5b60006001820161062457634e487b7160e01b600052601160045260246000fd5b506001019056fea2646970667358221220d79c8203470a57fb2fdb26ddb7604d1aa2d9dc126f3ef36dff168ed4b25eb3fb64736f6c63430008140033",
  "linkReferences": {},
  "deployedLinkReferences": {}
}