{
  "_format": "hh-sol-artifact-1",
  "contractName": "Verifier",
  "sourceName": "contracts/Verifier.sol",
  "abi": [
    {
      "inputs": [],
      "stateMutability": "nonpayable",
      "type": "constructor"
    },
    {
      "inputs": [
        {
          "internalType": "bytes32",
          "name": "merkleRoot",
          "type": "bytes32"
        },
        {
          "internalType": "bytes",
          "name": "signature",
          "type": "bytes"
        }
      ],
      "name": "recoverSignerFromCompositeSignature",
      "outputs": [
        {
          "internalType": "address",
          "name": "",
          "type": "address"
        }
      ],
      "stateMutability": "view",
      "type": "function"
    },
    {
      "inputs": [
        {
          "internalType": "bytes32",
          "name": "messageHash",
          "type": "bytes32"
        },
        {
          "internalType": "bytes32[]",
          "name": "proof",
          "type": "bytes32[]"
        },
        {
          "internalType": "bytes32",
          "name": "merkleRoot",
          "type": "bytes32"
        },
        {
          "internalType": "bytes",
          "name": "signature",
          "type": "bytes"
        },
        {
          "internalType": "address",
          "name": "expectedSigner",
          "type": "address"
        }
      ],
      "name": "verifyCompositeSignature",
      "outputs": [
        {
          "internalType": "bool",
          "name": "",
          "type": "bool"
        }
      ],
      "stateMutability": "view",
      "type": "function"
    },
    {
      "inputs": [
        {
          "internalType": "bytes32",
          "name": "messageHash",
          "type": "bytes32"
        },
        {
          "internalType": "bytes32[]",
          "name": "proof",
          "type": "bytes32[]"
        },
        {
          "internalType": "bytes32",
          "name": "root",
          "type": "bytes32"
        }
      ],
      "name": "verifyMessageInclusion",
      "outputs": [
        {
          "internalType": "bool",
          "name": "",
          "type": "bool"
        }
      ],
      "stateMutability": "pure",
      "type": "function"
    }
  ],
  "bytecode": "0x60a060405234801561001057600080fd5b50604080518082018252601981527f4549502d585858582d436f6d706f736974654d657373616765000000000000006020918201528151808301835260058152640312e302e360dc1b9082015281517fc2f8787176b8ac6bf7215b4adcc1e069bf4ab82d9ab1df05a57a91d425935b6e818301527f52ccc4043a4224385b40f3e15fc944879b0448416742f04f84f20bae055c0b20818401527f06c015bd22b4c69690933c1058878ebdfef31f9aaae40bbe86d8a09fe1b2972c60608201524660808083019190915283518083038201815260a09092019093528051910120908190526105a361010b60003960006101ff01526105a36000f3fe608060405234801561001057600080fd5b50600436106100415760003560e01c80639850c61c14610046578063cb5017571461006e578063f8c3ddd414610081575b600080fd5b6100596100543660046103ee565b6100ac565b60405190151581526020015b60405180910390f35b61005961007c366004610491565b6100f0565b61009461008f3660046104e4565b61019f565b6040516001600160a01b039091168152602001610065565b60006100ba888888886100f0565b6100c6575060006100e5565b60006100d386868661019f565b6001600160a01b038481169116149150505b979650505050505050565b600084815b8481101561019357600086868381811061011157610111610530565b90506020020135905080831015610153576040805160208101859052908101829052606001604051602081830303815290604052805190602001209250610180565b60408051602081018390529081018490526060016040516020818303038152906040528051906020012092505b508061018b81610546565b9150506100f5565b50909114949350505050565b604080517f7c2dbae0f2b0a655cfc0823536a5fe4ab8b7f73fcbf1908c4f43e26bbdea08dc6020820152908101849052600090819060600160408051601f1981840301815290829052805160209182012061190160f01b918301919091527f0000000000000000000000000000000000000000000000000000000000000000602283015260428201819052915060009060620160405160208183030381529060405280519060200120905061028a8186868080601f01602080910402602001604051908101604052809392919081815260200183838082843760009201919091525061029492505050565b9695505050505050565b600081516041146102eb5760405162461bcd60e51b815260206004820152601860248201527f496e76616c6964207369676e6174757265206c656e6774680000000000000000604482015260640160405180910390fd5b602082810151604080850151606080870151835160008082529681018086528a9052951a928501839052840183905260808401819052919260019060a0016020604051602081039080840390855afa15801561034b573d6000803e3d6000fd5b5050604051601f190151979650505050505050565b60008083601f84011261037257600080fd5b50813567ffffffffffffffff81111561038a57600080fd5b6020830191508360208260051b85010111156103a557600080fd5b9250929050565b60008083601f8401126103be57600080fd5b50813567ffffffffffffffff8111156103d657600080fd5b6020830191508360208285010111156103a557600080fd5b600080600080600080600060a0888a03121561040957600080fd5b87359650602088013567ffffffffffffffff8082111561042857600080fd5b6104348b838c01610360565b909850965060408a0135955060608a013591508082111561045457600080fd5b506104618a828b016103ac565b90945092505060808801356001600160a01b038116811461048157600080fd5b8091505092959891949750929550565b600080600080606085870312156104a757600080fd5b84359350602085013567ffffffffffffffff8111156104c557600080fd5b6104d187828801610360565b9598909750949560400135949350505050565b6000806000604084860312156104f957600080fd5b83359250602084013567ffffffffffffffff81111561051757600080fd5b610523868287016103ac565b9497909650939450505050565b634e487b7160e01b600052603260045260246000fd5b60006001820161056657634e487b7160e01b600052601160045260246000fd5b506001019056fea2646970667358221220b08beaa5a91375dd709aa03dda5fdae3e39322b32e94460b48b343126687963d64736f6c63430008140033",
  "linkReferences": {},
  "deployedLinkReferences": {}
}